:020000040000FA
:04000000CFEF0FF03F
:040008009FD811006C
:10001800D8CF00F0E0CF01F0026E00019EA008D01A
:10002800F10ECF6E5C0ECE6E3352D8B4BBD99E9013
:10003800F2A47DD0480ED76EE40ED66E962B000E35
:100048009723502A51224F2AA351A411A51109E040
:10005800365207E0546605D0A307000EA45BA55BE3
:10006800F8D9A651A711A81109E0375207E054663C
:1000780005D0A607000EA75BA85BF2D9A951AA1163
:10008800AB1109E0385207E0546605D0A907000E05
:10009800AA5BAB5BECD9AC51AD11AE1109E039529A
:1000A80007E0546605D0AC07000EAD5BAE5BE6D941
:1000B800AF51B011B11109E03A5207E0546605D0CA
:1000C800AF07000EB05BB15BE0D9544CE5D9A35142
:1000D800A411A51111E1A651A711A8110DE1A9516B
:1000E800AA11AB1109E1AC51AD11AE1105E1AF5147
:1000F800B011B111D8B4D0D9A351A411A511D8B455
:10010800226AA651A711A811D8B4236AA951AA1125
:10011800AB11D8B4246AAC51AD11AE11D8B4256A6C
:10012800AF51B011B111D8B4266A0400F2949EBA46
:10013800AECF4EF0025001C0E0FF00C0D8FF100063
:10014800F292F090F09212007F6E7FC0C9FFC7A0B4
:10015800FED7C9501200020EC66EC79EC79CC6883D
:10016800C68A12007F5083EC18F0000A06E07F5020
:1001780083EC18F007D87F2AF5D712000D0E02D8A5
:100188000A0E00D07F6E7FC0ADFFACA2FED7120072
:100198001E6E1F6A110E206E08D01F3621361E50A3
:1001A8001F5C21B0D880D8B01F6E1C361D36202E9B
:1001B800F4D71C5012001E6E1F6A100E206E1C36DB
:1001C8001D361F3621361E501F5C21B0D880D8B08E
:1001D8001F6E202EF4D71F501200806A816A826A2F
:1001E800836A846AC30E926EF70E936E280E946E1D
:1001F800FE0E956E040E966E0F0EC16EC26A070E45
:10020800B46E850ED56E310ECD6E070ECA6E310EE8
:10021800B16EF26AC00EF16EF06A9D6AA06A9E6ABB
:10022800A16A9F6AA26AD08EF28CF28ED86A1200F6
:10023800966B976B9A6B9B6B5C6A5D6A5E6A3452CD
:1002480002E0818601D081965F6A626A12007F6E41
:10025800C36AC46A7F5203E0050EC26E02D0010E63
:10026800C26EC282C2B2FED7C4CF99F0C3CF98F093
:1002780012001E6ECC6ABA0ECC64FDD71E2EFAD7B9
:1002880012007F6EFA0EF5DFFA0EF3DFFA0EF1DFD9
:10029800FA0EEFDF7F2EF6D712001250196E1350A8
:1002A8001A6E14501B6E1C6A1D6A180E186E1936C9
:1002B8001A361B361C361D3605E2100E1C5C0E0E57
:1002C8001D5805E3100E1C5E0E0E1D5AD8802E36E2
:1002D800182EEDD79E6B2E503C0DF3CF9CF0F4CF2B
:1002E8009DF03C0E9E03F3CF17F09C03F3CF15F05F
:1002F800F4CF16F09D03F3501626F450172215502C
:10030800125C9C6F165013589D6F175014589E6FAF
:100318009C51196E9D511A6E9E511B6E1C6A180EC7
:10032800186E19361A361B361C3603E23C0E1C5C56
:1003380003E33C0E1C5ED8802F36182EF2D79C5152
:10034800196E9D511A6E9E511B6E306A180E186EEA
:1003580019361A361B36303603E23C0E305C02E39F
:100368003C0E305E182EF4D71200F194F294F28A03
:100378009F909E909D80120083B4FED7640E79DF13
:1003880083A4FED7640E75D77F6E7F380F0B7F6E00
:100398000A0E7F02F3CF7FF00F0E7F167F507F2665
:1003A8007F50120081B002D0562A01D0566A81B21D
:1003B80002D0572A01D0576A81B402D0582A01D0F6
:1003C800586A81BA02D0592A01D0596A81BC02D030
:1003D8005A2A01D05A6A81BE02D05B2A01D05B6AD0
:1003E800612C05D082B602D0602A01D0606A030E63
:1003F800566404D0770E466E010E336E030E5764B2
:1004080004D0B70E466E010E336E030E586404D046
:10041800D70E466E010E336E030E596404D0F30EE8
:10042800466E010E336E030E5A6404D0F50E466E06
:10043800010E336E030E5B6404D0F60E466E010E99
:10044800336E3C0E606404D0A50E466E010E336E0A
:10045800120082928294828C829E839082901200F3
:1004680082828284829C829E839082901200828201
:100478008294829C828E83908290120082928294CF
:10048800829C829E83808290120082928294829CB7
:10049800829E83908280120082928294829C829EA5
:1004A800839082901200186E18C0A9FFA69EA69C81
:1004B800A680A8CF19F019501200156E15C0A9FF13
:1004C80014C0A8FFA69CA684550EA76EAA0EA76EF8
:1004D800A682A6B2FED7A6941200F60EE4DF366E08
:1004E800010EC7DEF70EDFDF376E010EC2DEC60E65
:1004F800DADF386E010EBDDEC70ED5DF396E010EAC
:10050800B8DEC80ED0DF3A6E010EB3DEFB0ECBDFCD
:100518003B6E010EAEDEDF0EC6DF446E010EA9DEB5
:10052800DA0EC1DF536E010EA4DEDB0EBCDF526EA5
:10053800010E9FDEF50EB7DF486E010E9ADEF40E4F
:10054800B2DF496E010E95DEF30EADDF4A6E010E85
:1005580090DEF20EA8DF4B6E010E8BDEF10EA3DFEC
:100568004C6E010E86DEF00E9EDF4D6E010E81DEB2
:10057800FF0E99DF346E010E7CDEFE0E94DF356EC1
:10058800010E77DEE70E8FDFC96F010E72DEE80E0F
:100598008ADFC86F010E6DDEE90E85DFC76F010EB9
:1005A80068DEEA0E80DFBA6F010E63DEEB0E7BDFDA
:1005B800B96F010E5EDEEC0E76DFB86F010E59DE04
:1005C800ED0E71DFBD6F010E54DEEE0E6CDFBC6FF9
:1005D800010E4FDEEF0E67DFBB6F010E4ADECA0E5B
:1005E80062DFC06F010E45DECB0E5DDFBF6F010E0F
:1005F80040DECC0E58DFBE6F010E3BDECD0E53DF62
:10060800C36F010E36DECE0E4EDFC26F010E31DE35
:10061800CF0E49DFC16F010E2CDEBA0E44DFC66F64
:10062800010E27DEBB0E3FDFC56F010E22DEBC0EBA
:100638003ADFC46F010E1DDEE40E35DFCC6F010E0C
:1006480018DEE50E30DFCB6F010E13DEE60E2BDF72
:10065800CA6F010E0EDEDC0E26DFDE6F010E09DE2C
:10066800DD0E21DFDD6F010E04DEDE0E1CDFDC6F28
:10067800010EFFD5096E9A519B1104E1B26BB36B61
:10068800B46B12000A6A094C0B6A020E096202D0A6
:10069800050E0B6E030E096202D0600E0B6E040E7F
:1006A800096204D0600E0B6E050E0B26060E096259
:1006B80002D00B0E0B6E2C6A0A0E2C601ED00B504B
:1006C800F2DE0C6E0C3C02D0010E0A6E0A6615D0E2
:1006D8000C50640DF3CF0DF0F4CF0EF00B28E3DED1
:1006E8000C6E0D26000E0E229A510D5C9B510E5871
:1006F80004E2100E0B262C2ADFD70A5202E0100E55
:100708000B5E020E0B260B50CEDE0C6E100DF3CFD7
:1007180013F0F4CF14F0156A0E0DF3501426F450AC
:1007280015220B28C0DE0C6E9E6B3C0DF3CF9CF09F
:10073800F4CF9DF09C5113269D5114229E511522F1
:10074800020E0B24B0DE0C6E1326000E14221522A6
:100758001350176E1450186E1550196E1A6A1B6ACA
:10076800180E166E1736183619361A361B3605E265
:100778000D501A5C0E501B5805E30D501A5E0E50B2
:100788001B5AD8800F361036162EECD71350176E1A
:100798001450186E1550196E116A126A180E166EDA
:1007A8001736183619361136123605E20D50115C17
:1007B8000E50125804E30D50115E0E50125A162EA8
:1007C800EFD710509B03F3CFB4F00F509A03F3CF39
:1007D800B2F0F4CFB3F010509A03F350B327F450AB
:1007E800B4230F509B03F350B327F450B423125093
:1007F8009B03F3CF15F011509A03F3CF13F0F4CF06
:1008080014F012509A03F3501426F4501522115084
:100818009B03F3501426F45015221350176E1450EE
:10082800186E1550196E1A6A1B6A180E166E17364E
:10083800183619361A361B3605E20D501A5C0E505A
:100848001B5805E30D501A5E0E501B5AD8801336FC
:1008580014361536162EEBD71350B2271450B3237F
:100868001550B4231200096E0A6A092C08D00B6AC5
:10087800A3C013F0A4C014F0A36BA46BA56B020E65
:10088800096209D0050E0B6EA6C013F0A7C014F0BC
:10089800A66BA76BA86B030E096209D0600E0B6EDE
:1008A800A9C013F0AAC014F0A96BAA6BAB6B040E15
:1008B800096209D0650E0B6EACC013F0ADC014F020
:1008C800AC6BAD6BAE6B060E096209D00B0E0B6EEE
:1008D800AFC013F0B0C014F0AF6BB06BB16B020EC9
:1008E8000B262C6A0A0E2C6038D00B50DCDD0C6EFF
:1008F8000C3C03D0010E0A6E30D00C50100DF3CF13
:1009080015F0F4CF16F0176A0E0DF3501626F450B2
:1009180017220B28C8DD0C6E9E6B3C0DF3CF9CF0A4
:10092800F4CF9DF09C5115269D5116229E511722F9
:10093800020E0B24B8DD0C6E1526000E16221722A7
:1009480017500BE11450165C04E307E11350155CD3
:1009580004E2100E0B262C2AC5D70A5202E0100E0C
:100968000B5E020E0B5E0B509EDD0C6E640DF3CF1A
:100978000DF0F4CF0EF00B2896DD0C6E0D26000E50
:100988000E221550196E16501A6E17501B6E1C6ADF
:100998001D6A180E186E19361A361B361C361D3687
:1009A80005E20D501C5C0E501D5805E30D501C5EF1
:1009B8000E501D5AD8800F361036182EECD7155009
:1009C800196E16501A6E17501B6E116A126A180E9D
:1009D800186E19361A361B361136123605E20D50C6
:1009E800115C0E50125804E30D50115E0E50125A4D
:1009F800182EEFD714500E02F3CF17F013500D0234
:100A0800F3CF15F0F4CF16F014500D02F35016265C
:100A1800F450172213500E02F3501626F4501722E2
:100A280010500E02F3CF9EF00F500D02F3CF9CF042
:100A3800F4CF9DF010500D02F3509D27F4509E23E3
:100A48000F500E02F3509D27F4509E2311509C2501
:100A58000D6E12509D210E6E1550196E16501A6E9D
:100A680017501B6E1C6A1D6A180E186E19361A3636
:100A78001B361C361D3605E20D501C5C0E501D58E9
:100A880005E30D501C5E0E501D5AD8809A379B37CF
:100A9800182EECD712001C6EF00E1C141D6ED89088
:100AA8001D32D8901D321DC080FF848000D000D038
:100AB80084900F0E1C141D6ED8901D36D8901D36CC
:100AC8001DC080FF848000D000D08490030E3DEFCD
:100AD80001F0116E8492280EDEDF040E3DEC01F069
:100AE800115203E00F0ED7DF02D00C0ED4DF040E34
:100AF8003DEC01F0060ECFDF040E3DEF01F0146E61
:100B08008492C9D78492010EC6DF010E3DEF01F031
:100B1800848214C016F015C017F084EC18F0000A8F
:100B28000BE014C016F015C017F084EC18F0B3DF12
:100B3800142A000E1522EDD71200136E400E13640E
:100B48000BD05B0E136008D0410E135C146E730E4D
:100B5800142416EC1BF0156E3C0E136202D0A60E80
:100B6800156E3F0E136202D0AC0E156E260E136280
:100B780002D0E20E156E240E136202D0C40E156E5A
:100B8800600E13640BD07B0E136008D0610E135CEB
:100B9800146E8D0E142416EC1BF0156E3E0E1362A7
:100BA80002D0B90E156E2F0E136202D0C10E156E4B
:100BB800250E136202D0E60E156E230E136202D0C4
:100BC800C40E156E200E136201D0156E155012005A
:100BD8008482115074EC1BF0000A08E0115074EC88
:100BE8001BF0ABDF126E112A56DFF3D712009AC042
:100BF8001CF09BC01DF0640EDFEC00F0316E9AC053
:100C08001CF09BC01DF0640ECCEC00F01CC032F050
:100C180032C01CF01D6A0A0ECCEC00F0300E1C2409
:100C28003ADF32C01CF01D6A0A0EDFEC00F0300F0C
:100C380032DF2E0E30DF31C01CF01D6A0A0ECCECFC
:100C480000F0300E1C2427DF31C01CF01D6A0A0E8C
:100C5800DFEC00F0300F1FDF7E0E116EB9D72EC00B
:100C68001CF01D6A0A0ECCEC00F0300E1C2413DFB9
:100C78002EC01CF01D6A0A0EDFEC00F0300F0BDFEF
:100C88003A0E09DF2FC01CF01D6A0A0ECCEC00F0EA
:100C9800300E1C2400DF2FC01CF01D6A0A0EDFEC8A
:100CA80000F0300FF8DE3A0EF6DE30C01CF01D6A98
:100CB8000A0ECCEC00F0300E1C24EDDE30C01CF027
:100CC8001D6A0A0EDFEC00F0300FE5D6B5C011F052
:100CD800B6C012F0B7C013F011501D6E12501E6E40
:100CE80013501F6E206A216A180E1C6E1D361E36A0
:100CF8001F362036213605E2100E205C270E2158BB
:100D080005E3100E205E270E215AD88014361536BA
:100D18001C2EECD711501D6E12501E6E13501F6EF4
:100D2800166A176A180E1C6E1D361E361F361636C2
:100D3800173605E2100E165C270E175804E3100E3E
:100D4800165E270E175A1C2EEFD714C01CF015C0BC
:100D58001DF0640ECCEC00F01CC018F014C01CF0A0
:100D680015C01DF0640EDFEC00F01A6E16C01CF002
:100D780017C01DF0640ECCEC00F01CC019F016C0B2
:100D88001CF017C01DF0640EDFEC00F01B6E18C0DD
:100D98001CF01D6A0A0EDFEC00F0300F7CDE1AC072
:100DA8001CF01D6A0A0ECCEC00F0300E1C2473DE19
:100DB8001AC01CF01D6A0A0EDFEC00F0300F6BDE63
:100DC80019C01CF01D6A0A0ECCEC00F0300E1C2471
:100DD80062DE19C01CF01D6A0A0EDFEC00F0300F4D
:100DE8005ADE2E0E58DE1BC01CF01D6A0A0ECCEC13
:100DF80000F0300E1C244FDE1BC01CF01D6A0A0ECA
:100E0800DFEC00F0300F47D67DDE800E78DE146A06
:100E1800156A7EDEC00E73DE4C0E146E156A78DE1F
:100E280081761200C00E6BDE7F0E146E156A70DEBE
:100E3800C0EF01F0C00E63DE870E146E156A68DE1F
:100E480045DF490E146E156A63DEC0EF01F0096EC6
:100E5800010AD8B4A7D0030AD8B4BAD0010AD8B4C2
:100E6800CDD0070AD8B4E0D0010AD8B4F3D0030A29
:100E7800D8B406D1010AD8B419D10F0AD8B41ED1F2
:100E8800010AD8B425D1030AD8B42CD1010AD8B4A0
:100E980033D1070AD8B43AD1010AD8B440D1030AE9
:100EA800D8B446D1010AD8B44CD11F0AD8B452D10B
:100EB800010AD8B458D1030AD8B479D1010AD8B4F0
:100EC8007FD1070AD8B485D1010AD8B49DD1030AC5
:100ED800D8B4B5D1010AD8B4CDD10F0AD8B4E5D168
:100EE800010AD8B4FDD1030AD8B4B3EF0EF0010A51
:100EF800D8B4B3EF0EF0070AD8B4B3EF0EF0010A76
:100F0800D8B481D2030AD8B44BD3010AD8B448D391
:100F18003F0AD8B445D3010AD8B442D3030AD8B497
:100F28003FD3010AD8B4D2D3070AD8B4CFD3010A21
:100F3800D8B4CCD3030AD8B4C9D3010AD8B4C6D319
:100F48000F0AD8B414EF0DF0010AD8B41AEF0DF057
:100F5800030AD8B420EF0DF0010AD8B426EF0DF03B
:100F6800070AD8B478EF0DF0010AD8B4FEEF0DF0F7
:100F7800030AD8B40DEF0EF0010AD8B429EF0EF029
:100F88001F0AD8B445EF0EF0010AD8B461EF0EF08D
:100F9800030AD8B47DEF0EF0010AD8B499EF0EF029
:100FA800B3EF0EF0C00EABDD8E0E146E156AB0DD19
:100FB8002C6A080E2C6008D02C5016EC1BF0476EDB
:100FC8006ADD102A2C2AF5D7C0EC01F0B3EF0EF039
:100FD80036C011F0F60EB4EC0EF0366EC0EC01F02F
:100FE8003652D8B4B3EF0EF0A351A411A511D8B45A
:100FF800B3EF0EF0010E226EB3EF0EF037C011F012
:10100800F70EB4EC0EF0376EC0EC01F03752D8B4DE
:10101800B3EF0EF0A651A711A811D8B4B3EF0EF094
:10102800010E236EB3EF0EF038C011F0C60EB4EC0B
:101038000EF0386EC0EC01F03852D8B4B3EF0EF0B1
:10104800A951AA11AB11D8B4B3EF0EF0010E246E5A
:10105800B3EF0EF039C011F0C70EB4EC0EF0396ED4
:10106800C0EC01F03952D8B4B3EF0EF0AC51AD1169
:10107800AE11D8B4B3EF0EF0010E256EB3EF0EF03B
:101088003AC011F0C80EB4EC0EF03A6EC0EC01F0A4
:101098003A52D8B4B3EF0EF0AF51B011B111D8B481
:1010A800B3EF0EF0010E266EB3EF0EF0554CB3EF12
:1010B8000EF0010EF4EC0EF0B3EF0EF05550020AEC
:1010C800D8B4B3EF0EF0020EF4EC0EF0B3EF0EF05E
:1010D8005550030AD8B4B3EF0EF0030EF4EC0EF03B
:1010E800B3EF0EF05550040AD8B4B3EF0EF0040E67
:1010F800F4EC0EF0B3EF0EF05550060AD8B4B3EF87
:101108000EF0060EF4EC0EF0B3EF0EF0B8C0B5F02A
:10111800B9C0B6F0BAC0B7F08DDEB3EF0EF0BBC001
:10112800B5F0BCC0B6F0BDC0B7F084DEB3EF0EF0CA
:10113800BEC0B5F0BFC0B6F0C0C0B7F07BDEB3EF3D
:101148000EF0C1C0B5F0C2C0B6F0C3C0B7F072DED1
:10115800B3EF0EF0C4C0B5F0C5C0B6F0C6C0B7F066
:1011680069DEB3EF0EF0BB51B825B56FBC51B9219C
:10117800B66FBD51BA21B76FBE51B527BF51B6235F
:10118800C051B723C151B527C251B623C351B723A4
:10119800C451B527C551B623C651B723C751B52782
:1011A800C851B623C951B72345DEB3EF0EF0C7C007
:1011B800B5F0C8C0B6F0C9C0B7F03CDEB3EF0EF06A
:1011C800CAC0B5F0CBC0B6F0CCC0B7F033DEB3EFD1
:1011D8000EF0B86BB96BBA6B146AEA0E61EC02F0E8
:1011E8000A0E3DEC01F0146AEB0E61EC02F00A0EF7
:1011F8003DEC01F0146AEC0E61EC02F00A0E3DECD5
:1012080001F010DEB3EF0EF0BB6BBC6BBD6B146A64
:10121800ED0E61EC02F00A0E3DEC01F0146AEE0EE0
:1012280061EC02F00A0E3DEC01F0146AEF0E61EC7D
:1012380002F00A0E3DEC01F0F5DDB3EF0EF0BE6BE7
:10124800BF6BC06B146ACA0E61EC02F00A0E3DEC6B
:1012580001F0146ACB0E61EC02F00A0E3DEC01F0CD
:10126800146ACC0E61EC02F00A0E3DEC01F0DADDF6
:10127800B3EF0EF0C16BC26BC36B146ACD0E61EC99
:1012880002F00A0E3DEC01F0146ACE0E61EC02F099
:101298000A0E3DEC01F0146ACF0E61EC02F00A0E62
:1012A8003DEC01F0BFDDB3EF0EF0C46BC56BC66B50
:1012B800146ABA0E61EC02F00A0E3DEC01F0146AF1
:1012C800BB0E61EC02F00A0E3DEC01F0146ABC0E94
:1012D80061EC02F00A0E3DEC01F0A4DDB3EF0EF074
:1012E800B86BB96BBA6B146AEA0E61EC02F00A0EBD
:1012F8003DEC01F0146AEB0E61EC02F00A0E3DECD5
:1013080001F0146AEC0E61EC02F00A0E3DEC01F0FB
:10131800BB6BBC6BBD6B146AED0E61EC02F00A0E80
:101328003DEC01F0146AEE0E61EC02F00A0E3DECA1
:1013380001F0146AEF0E61EC02F00A0E3DEC01F0C8
:10134800BE6BBF6BC06B146ACA0E61EC02F00A0E6A
:101358003DEC01F0146ACB0E61EC02F00A0E3DEC94
:1013680001F0146ACC0E61EC02F00A0E3DEC01F0BB
:10137800C16BC26BC36B146ACD0E61EC02F00A0E2E
:101388003DEC01F0146ACE0E61EC02F00A0E3DEC61
:1013980001F0146ACF0E61EC02F00A0E3DEC01F088
:1013A800C46BC56BC66B146ABA0E61EC02F00A0E08
:1013B8003DEC01F0146ABB0E61EC02F00A0E3DEC44
:1013C80001F0146ABC0E61EC02F00A0E3DEC01F06B
:1013D800C76BC86BC96B146AE70E61EC02F00A0EA2
:1013E8003DEC01F0146AE80E61EC02F00A0E3DECE7
:1013F80001F0146AE90E61EC02F00A0E3DEC01F00E
:1014080011DDB3EF0EF02C6A030E2C60BDD0336AE9
:10141800C00E83EC05F0970E146E156A8CEC05F07F
:101428002C5005E0010A20E0030A3BE056D0540E98
:101438004FEC05F06F0E4FEC05F06B0E4FEC05F01E
:10144800650E4FEC05F06E0E4FEC05F0200E4FECDC
:1014580005F0310E4FEC05F0F50E57EC02F0476E33
:10146800010E3DEC01F039D0540E4FEC05F06F0E33
:101478004FEC05F06B0E4FEC05F0650E4FEC05F0E8
:101488006E0E4FEC05F0200E4FEC05F0320E4FECCF
:1014980005F0F40E57EC02F0476E010E3DEC01F03A
:1014A8001CD0540E4FEC05F06F0E4FEC05F06B0E90
:1014B8004FEC05F0650E4FEC05F06E0E4FEC05F0A5
:1014C800200E4FEC05F0330E4FEC05F0F30E57EC01
:1014D80002F0476E010E3DEC01F03352FEE0336A34
:1014E8004650770A0DE0C00A14E0600A1BE0240A9F
:1014F80022E0060A29E0030A30E0110A37E03FD06B
:1015080047C014F0F50E61EC02F00A0E3DEC01F054
:1015180036D047C014F0F40E61EC02F00A0E3DEC30
:1015280001F02DD047C014F0F30E61EC02F00A0E62
:101538003DEC01F024D047C014F0F20E61EC02F04B
:101548000A0E3DEC01F01BD047C014F0F10E61EC1F
:1015580002F00A0E3DEC01F012D047C014F0F00E74
:1015680061EC02F00A0E3DEC01F009D0C00E83ECEC
:1015780005F00A0E146E010E156E8CEC05F0FA0ECD
:101588003DEC01F02C2A40D7336AC00E83EC05F0FD
:10159800A40E146E156A8CEC05F0C0EC01F0DFD3D4
:1015A8001E0E096201D0106A1F0E096202D0050ED4
:1015B800106E200E096202D0600E106E210E0962B4
:1015C80004D0600E106E050E1026220E096202D09D
:1015D8000B0E106E86EC05F00A6A010E0C6E0C52AA
:1015E800D8B4BDD3105057EC02F0476E640DF3CF5A
:1015F8009AF0F4CF9BF0102857EC02F0476E9A2728
:10160800000E9B23474824D0800E83EC05F0110E72
:10161800146E156A8CEC05F0FBEC05F0C00E83EC3B
:1016280005F01A0E146E156A8CEC05F0020E1024E3
:1016380057EC02F02E6E030E102457EC02F02F6EBA
:10164800040E102457EC02F0306E33EC06F013D081
:10165800C00E83EC05F07F0E146E156A8CEC05F055
:1016680083B4FED7640E3DEC01F083A4FED7640E6C
:101678003DEC01F074D383B612D0050E0A600AD08F
:10168800100E102457EC02F0476E474803D00A2A80
:10169800100E102683A6FED7640E3DEC01F083B829
:1016A8000AD00A5203E00A06100E105E83A8FED77D
:1016B800640E3DEC01F083B492D79A6B9B6B83A4C4
:1016C800FED70C6A640E3DEC01F089D7230E09623F
:1016D80001D0106A240E096202D0050E106E250E84
:1016E800096202D0600E106E260E096204D0600EE8
:1016F800106E050E1026270E096202D00B0E106E12
:101708002C6A050E2C6012D00A6A0A0E0A600AD0EA
:1017180014680A50102461EC02F00A0E3DEC01F046
:101728000A2AF3D7100E10262C2AEBD7640E3DECAC
:1017380001F0010E6DEC05F02C6A050E2C605BD1F2
:1017480086EC05F0800E83EC05F02C0E146E010E6D
:10175800156E8CEC05F083B408D0010E0C6E83A4D2
:10176800FED7640E3DEC01F008D083BAF4D70C6ABA
:1017780083AAFED7640E3DEC01F00C663CD1476AA3
:10178800230E096204D0100E2C02F3CF10F0240EA1
:10179800096205D0100E2C02F350050F106E250EAD
:1017A800096205D0100E2C02F350600F106E260E41
:1017B800096207D0100E2C02F350600F106E050E50
:1017C8001026270E096205D0100E2C02F3500B0FBD
:1017D800106E86EC05F0880E0F6E9A6B9B6B2E6A66
:1017E8002F6A306A010E0B6E0A6A090E0E6E0A0E17
:1017F8000A60FFD00B5218E0800E83EC05F0110E42
:10180800146E156A8CEC05F0FBEC05F0C00E83EC49
:1018180005F01A0E146E156A8CEC05F033EC06F020
:101828000F5083EC05F00B6A83BA52D083AAFED717
:10183800640E3DEC01F00A2A0D6A010E0B6E0F5082
:10184800890A06E00F50C70A03E0CA0E0F6201D0EA
:101858000F2A8C0E0F6202D0C50E0F6ECD0E0F62CE
:101868002BD032C014F0105061EC02F00A0E3DEC9F
:1018780001F031C014F0102861EC02F00A0E3DECC2
:1018880001F02EC014F0020E102461EC02F00A0ED2
:101898003DEC01F02FC014F0030E102461EC02F0AF
:1018A8000A0E3DEC01F030C014F0040E102461EC77
:1018B80002F00A0E3DEC01F00F2A0F50C90A03E0AE
:1018C800CC0E0F6203D0050E0E6E02D0090E0E6EFE
:1018D80083B846D00E500D6004D00D2A010E0B6E51
:1018E80001D00B6A83A8FED7640E3DEC01F00B52C1
:1018F80037E00F50880A13E0010A16E0020A19E0DF
:10190800070A1CE04A0A1EE0010A1FE00E0A1FE04F
:10191800030A20E0060A20E0010A21E021D0E80EAF
:101928009A27030E9B231CD0640E9A27000E9B2334
:1019380017D00A0E9A27000E9B2312D09A2B000E5E
:101948009B230ED00A0E2E260BD02E2A09D00A0E63
:101958002F2606D02F2A04D00A0E302601D0302A8E
:1019680083B645D70D5204E00D06010E0B6E01D06B
:101978000B6A83A6FED7640E3DEC01F00B52D8B477
:1019880036D70F50880A13E0010A16E0020A19E058
:10199800070A1CE04A0A1EE0010A1FE00E0A1FE0BF
:1019A800030A20E0060A20E0010A21E020D7E80E19
:1019B8009A5F030E9B5B1BD7640E9A5F000E9B5BBE
:1019C80016D70A0E9A5F000E9B5B11D79A07000E76
:1019D8009B5B0DD70A0E2E5E0AD72E0608D70A0E75
:1019E8002F5E05D72F0603D70A0E305E00D73006C4
:1019F800FED62C2AA2D6640E3DEC01F0000E6DEC4A
:101A080005F086EC05F09A6B9B6B83A4FED7640EF9
:101A18003DEC01F083AAFED7640E3DEC01F09FD1A6
:101A280034C011F0FF0E9CD9346E99D135C011F035
:101A3800FE0E96D9356E93D13BC011F0FB0E90D9AE
:101A48003B6E8DD1010E0B6E0B521BE00B6A2E6A9A
:101A580044C01CF01D6A3C0ECCEC00F01CC02FF0FA
:101A680044C01CF01D6A3C0EDFEC00F0306EC00E66
:101A780083EC05F01A0E146E156A8CEC05F033EC45
:101A880006F083B60AD0445203E04406010E0B6EFA
:101A980083A6FED7640E3DEC01F083B80BD0F00EA0
:101AA800446003D0442A010E0B6E83A8FED7640E4F
:101AB8003DEC01F083BA13D044C014F0DF0E61ECA2
:101AC80002F083AAFED7640E3DEC01F0C00E83EC51
:101AD80005F0A40E146E156A8CEC05F002D083B4E0
:101AE800B3D7C0EC01F03BD186EC05F0275214E0E7
:101AF800800E83EC05F03D0E146E010E156E8CEC15
:101B080005F0C00E83EC05F00A0E146E010E156E7A
:101B18008CEC05F0C0EC01F0285214E0800E83EC48
:101B280005F0490E146E010E156E8CEC05F0C00E12
:101B380083EC05F00A0E146E010E156E8CEC05F0A0
:101B4800C0EC01F0295214E0800E83EC05F0550E2C
:101B5800146E010E156E8CEC05F0C00E83EC05F0CA
:101B68000A0E146E010E156E8CEC05F0C0EC01F037
:101B78002A5214E0800E83EC05F0610E146E010EFB
:101B8800156E8CEC05F0C00E83EC05F00A0E146E91
:101B9800010E156E8CEC05F0C0EC01F02B5214E030
:101BA800800E83EC05F06D0E146E010E156E8CEC34
:101BB80005F0C00E83EC05F00A0E146E010E156ECA
:101BC8008CEC05F0C0EC01F02766C9D02866C7D0B8
:101BD8002966C5D02A66C3D02B66C1D0800E83EC97
:101BE80005F01B0E146E010E156E8CEC05F0C0ECA2
:101BF80001F0B5D0276A286A296A2A6AC00E83ECE0
:101C080005F07F0E146E156A8CEC05F0C0EC01F03F
:101C1800A6D0A36BA46BA56B146AE00E61EC02F06E
:101C28000A0E3DEC01F0146AE10E61EC02F00A0EB6
:101C38003DEC01F0C00E83EC05F07F0E146E156AC2
:101C48008CEC05F0C0EC01F08AD0A66BA76BA86BF2
:101C5800146AE20E61EC02F00A0E3DEC01F0146A1F
:101C6800E30E61EC02F00A0E3DEC01F0C00E83ECCD
:101C780005F07F0E146E156A8CEC05F0C0EC01F0CF
:101C88006ED0A96BAA6BAB6B146AC00E61EC02F044
:101C98000A0E3DEC01F0146AC10E61EC02F00A0E66
:101CA8003DEC01F0C00E83EC05F07F0E146E156A52
:101CB8008CEC05F0C0EC01F052D0AC6BAD6BAE6BA8
:101CC800146AC20E61EC02F00A0E3DEC01F0146ACF
:101CD800C30E61EC02F00A0E3DEC01F0C00E83EC7D
:101CE80005F07F0E146E156A8CEC05F0C0EC01F05F
:101CF80036D0AF6BB06BB16B146AC40E61EC02F0F6
:101D08000A0E3DEC01F0146AC50E61EC02F00A0EF1
:101D18003DEC01F0C00E83EC05F07F0E146E156AE1
:101D28008CEC05F0C0EC01F01AD0C76BC86BC96B1E
:101D3800146AE70E61EC02F00A0E3DEC01F0146A39
:101D4800E80E61EC02F00A0E3DEC01F0146AE90EAF
:101D580061EC02F00A0E3DEC01F016EC07F01200FF
:101D6800126E11C013F0C00E83EC05F0115206E09C
:101D7800E80E146E156A8CEC05F005D0F90E146E99
:101D8800156A8CEC05F0966B976B975127E11E0E40
:101D9800966124D083BA20D0010E131A13C014F010
:101DA800125061EC02F00A0E3DEC01F0C00E83EC1B
:101DB80005F0135206E0C60E146E156A8CEC05F099
:101DC80005D0D70E146E156A8CEC05F083AAFED7E1
:101DD800640E3DEC01F002D083B4D7D71350120043
:101DE800116E112C06D01E0EA36FA46BA56B2DECE3
:101DF80002F0020E116206D01E0EA66FA76BA86B2A
:101E080034EC02F0030E116206D01E0EA96FAA6B05
:101E1800AB6B3BEC02F0040E116206D01E0EAC6FE9
:101E2800AD6BAE6B42EC02F0060E116206D01E0ED0
:101E3800AF6FB06BB16B49EC02F0800E83EC05F02C
:101E48005D0E146E156A8CEC05F0A351A411A51152
:101E580010E1A651A711A8110CE1A951AA11AB11C3
:101E680008E1AC51AD11AE1104E1AF51B011B1119F
:101E780059E0C00E83EC05F0112C0DD0A3C012F070
:101E8800A4C013F0A5C014F051EC01F0210E146E9B
:101E9800156A8CEC05F0020E11620DD0A6C012F086
:101EA800A7C013F0A8C014F051EC01F0290E146E6D
:101EB800156A8CEC05F0030E11620DD0A9C012F062
:101EC800AAC013F0ABC014F051EC01F0310E146E3F
:101ED800156A8CEC05F0040E11620DD0ACC012F03E
:101EE800ADC013F0AEC014F051EC01F0390E146E11
:101EF800156A8CEC05F0060E11620DD0AFC012F019
:101F0800B0C013F0B1C014F051EC01F0410E146EE2
:101F1800156A8CEC05F033EC06F0640E3DEC01F02C
:101F280083B493D7112C05D050EC02F0A36BA46BAB
:101F3800A56B020E116205D050EC02F0A66BA76BE0
:101F4800A86B030E116205D050EC02F0A96BAA6BC6
:101F5800AB6B040E116205D050EC02F0AC6BAD6BAC
:101F6800AE6B060E116205D050EC02F0AF6BB06B91
:101F7800B16B800E83EC05F06E0E146E156A8CEC56
:101F880005F0C00E83EC05F0B50E146E156A8CECE6
:101F980005F0C0EF01F000EE00F0060E0001EE6A59
:101FA800EA62FDD7F1EC00F0640E3DEC01F0AFEC15
:101FB80000F0640E3DEC01F0000E6DEC05F0640ECF
:101FC8003DEC01F086EC05F0B9EC01F071EC02F0A3
:101FD8001CEC01F0546A556A086A8288616A86ECCA
:101FE80005F0800E83EC05F0146A156A8CEC05F098
:101FF800C00E83EC05F0550E116EECEC05F0355271
:102008001FE0365204E044C0A3F0A46BA56B37521E
:1020180004E044C0A6F0A76BA86B385204E044C0A3
:10202800A9F0AA6BAB6B395204E044C0ACF0AD6BBD
:10203800AE6B3A5223E044C0AFF0B06BB16B1ED028
:10204800A351A411A51102E0010E226EA651A711F9
:10205800A81102E0010E236EA951AA11AB1102E0EA
:10206800010E246EAC51AD11AE1102E0010E256EC9
:10207800AF51B011B11102E0010E266E000E6DECE9
:1020880005F022520AE0A351A411A51106E05466F6
:1020980004D02DEC02F0010E556E23520AE0A65131
:1020A800A711A81106E0546604D034EC02F0020E21
:1020B800556E24520AE0A951AA11AB1106E05466E4
:1020C80004D03BEC02F0030E556E25520AE0AC51E9
:1020D800AD11AE1106E0546604D042EC02F0040ED5
:1020E800556E26520AE0AF51B011B11106E05466A0
:1020F80004D049EC02F0060E556E33526DE0C80E5E
:102108003DEC01F0336A4650770A0FE0C00A16E04A
:10211800600A1DE0240A24E0060A2BE0030A32E0E4
:10212800530A39E0420A3BE03AD048509A27000E59
:102138009B23612C34D0040E5F2631D049509A2756
:10214800000E9B23612C2BD0040E5F2628D04A500A
:102158009A27000E9B23612C22D0040E5F261FD0E5
:102168004B509A27000E9B23612C19D0040E5F2632
:1021780016D04C509A27000E9B23612C10D0040EC9
:102188005F260DD04D509A27000E9B23612C07D057
:10219800040E5F2604D04C509A27000E9B2386EC31
:1021A80005F0800E83EC05F0660E116EECEC05F080
:1021B800170E146E156A8CEC05F0FBEC05F0C00EDA
:1021C80083EC05F06D0E116EECEC05F0FA0E3DECAB
:1021D80001F04F6A81CF46F0B40E4F6441D09A5156
:1021E8009B113EE09A51C7279B51C823000EC92373
:1021F8009A51CA279B51CB23000ECC239A6B9B6B19
:10220800C9C014F0E70E61EC02F00A0E3DEC01F0D3
:10221800C8C014F0E80E61EC02F00A0E3DEC01F0C3
:10222800C7C014F0E90E61EC02F00A0E3DEC01F0B3
:10223800CCC014F0E40E61EC02F00A0E3DEC01F0A3
:10224800CBC014F0E50E61EC02F00A0E3DEC01F093
:10225800CAC014F0E60E61EC02F00A0E3DEC01F083
:10226800366610D037660ED038660CD039660AD07C
:102278003A6608D0356606D008EC07F0C0EC01F0E5
:102288002AEF18F084B41AD0CAC0B5F0CBC0B6F0A3
:10229800CCC0B7F0C00E83EC05F0870E146E156A3B
:1022A8008CEC05F06AEC06F0490E146E156A8CEC9D
:1022B80005F084A4FED7640E3DEC01F0A351A411EF
:1022C800A51102E0366619D0A651A711A81102E09F
:1022D800376613D0A951AA11AB1102E038660DD0A8
:1022E800AC51AD11AE1102E0396607D0AF51B01153
:1022F800B11102E03A52D8B4556A9A519B112FE1B4
:10230800A351A411A51102E0366629D0A651A71140
:10231800A81102E0376623D0A951AA11AB1102E037
:1023280038661DD0AC51AD11AE1102E0396617D038
:10233800AF51B011B11102E03A6611D0800E83ECB2
:1023480005F0146A156A8CEC05F0C00E83EC05F0F4
:10235800550E116EECEC05F0626A2AEF18F09A51EE
:102368009B11D8A4DBD1A351A411A51111E1A65149
:10237800A711A8110DE1A951AA11AB1109E1AC519E
:10238800AD11AE1105E1AF51B011B111D8B4C6D13C
:10239800365261E0A351A411A5115DE0546627D01F
:1023A800800E83EC05F0116AECEC05F0A3C012F086
:1023B800A4C013F0A5C014F051EC01F0C00E83ECDA
:1023C80005F0630E2E6407D0790E146E010E156E9B
:1023D8008CEC05F00CD00C0E146E156A8CEC05F024
:1023E80033EC06F00C0E146E156A8CEC05F083B213
:1023F80025D0546623D0010E546E086E86EC05F085
:10240800800E83EC05F0810E116EECEC05F083B2C2
:1024180012D083BC06D0622A83ACFED7640E3DEC92
:1024280001F0030E6262F3D7780EA327000EA423EF
:10243800A523626AECD7640E3DEC01F083B20BD0A1
:10244800542C09D0082C07D0546A086A83A2FED7F6
:10245800640E3DEC01F0375252E0A651A711A811C5
:102468004EE0546628D0800E83EC05F0110E116EF4
:10247800ECEC05F0A6C012F0A7C013F0A8C014F049
:1024880051EC01F0C00E83EC05F0630E2E6407D00A
:10249800790E146E010E156E8CEC05F00CD00C0E36
:1024A800146E156A8CEC05F033EC06F00C0E146E05
:1024B800156A8CEC05F083B214D0546612D0010E64
:1024C800546E020E086E86EC05F0800E83EC05F063
:1024D800810E116EECEC05F083A2FED7640E3DEC84
:1024E80001F083B20CD0542C0AD0020E086207D037
:1024F800546A086A83A2FED7640E3DEC01F0385294
:1025080052E0A951AA11AB114EE0546628D0800EB2
:1025180083EC05F0220E116EECEC05F0A9C012F068
:10252800AAC013F0ABC014F051EC01F0C00E83EC5C
:1025380005F0630E2E6407D0790E146E010E156E29
:102548008CEC05F00CD00C0E146E156A8CEC05F0B2
:1025580033EC06F00C0E146E156A8CEC05F083B2A1
:1025680014D0546612D0010E546E030E086E86EC19
:1025780005F0800E83EC05F0810E116EECEC05F091
:1025880083A2FED7640E3DEC01F083B20CD0542C2C
:102598000AD0030E086207D0546A086A83A2FED7DD
:1025A800640E3DEC01F0395252E0AC51AD11AE1160
:1025B8004EE0546628D0800E83EC05F0330E116E81
:1025C800ECEC05F0ACC012F0ADC013F0AEC014F0E6
:1025D80051EC01F0C00E83EC05F0630E2E6407D0B9
:1025E800790E146E010E156E8CEC05F00CD00C0EE5
:1025F800146E156A8CEC05F033EC06F00C0E146EB4
:10260800156A8CEC05F083B214D0546612D0010E12
:10261800546E040E086E86EC05F0800E83EC05F00F
:10262800810E116EECEC05F083A2FED7640E3DEC32
:1026380001F083B20CD0542C0AD0040E086207D0E3
:10264800546A086A83A2FED7640E3DEC01F03A5240
:1026580052E0AF51B011B1114EE0546628D0800E4F
:1026680083EC05F0440E116EECEC05F0AFC012F0EF
:10267800B0C013F0B1C014F051EC01F0C00E83ECFF
:1026880005F0630E2E6407D0790E146E010E156ED8
:102698008CEC05F00CD00C0E146E156A8CEC05F061
:1026A80033EC06F00C0E146E156A8CEC05F083B250
:1026B80014D0546612D0010E546E060E086E86ECC5
:1026C80005F0800E83EC05F0810E116EECEC05F040
:1026D80083A2FED7640E3DEC01F083B20CD0542CDB
:1026E8000AD0060E086207D0546A086A83A2FED789
:1026F800640E3DEC01F05F5210E08298FA0E3DEC5A
:1027080001F05F06030E5F1409E18288FA0E3DECC2
:1027180001F0FA0E3DEC01F001D08288555202E03A
:10272800552C9DD083BC07D0365205E09A519B1199
:1027380005E1226603D03552D8B491D0000E57EC8B
:1027480002F0046E056A640E0402F3CF06F0F4CFBB
:1027580007F00502F3500726010E57EC02F0046E4D
:10276800056A06260550072206509A5D07509B59B0
:102778005FE3010E556E226A966B976B3EEC03F091
:10278800B251A327B351A423B451A5239A51B82712
:102798009B51B923000EBA239A51CA279B51CB23C8
:1027A800000ECC23B26BB36BB46B9A6B9B6BA351CB
:1027B800A411A51107E0546605D03C0E966F976BDF
:1027C8002DEC02F0BAC014F0EA0E61EC02F00A0E29
:1027D8003DEC01F0B9C014F0EB0E61EC02F00A0E0A
:1027E8003DEC01F0B8C014F0EC0E61EC02F00A0EFA
:1027F8003DEC01F0CCC014F0E40E61EC02F00A0EDE
:102808003DEC01F0CBC014F0E50E61EC02F00A0ECD
:102818003DEC01F0CAC014F0E60E61EC02F00A0EBD
:102828003DEC01F083ACFED7640E3DEC01F017D00F
:1028380086EC05F0800E83EC05F0660E116EECEC6C
:1028480005F0170E146E156A8CEC05F0FBEC05F01C
:10285800C00E83EC05F06D0E116EECEC05F05552D0
:1028680003E0020E55629DD083BE07D0375205E0C3
:102878009A519B1105E1236603D03552D8B491D003
:10288800050E57EC02F0046E056A640E0402F3CFDD
:1028980006F0F4CF07F00502F3500726060E57ECB2
:1028A80002F0046E056A06260550072206509A5D56
:1028B80007509B595FE3020E556E236A966B976B20
:1028C8003EEC03F0B251A627B351A723B451A82375
:1028D8009A51BB279B51BC23000EBD239A51CA278E
:1028E8009B51CB23000ECC23B26BB36BB46B9A6BAA
:1028F8009B6BA651A711A81107E0546605D03C0EA2
:10290800966F976B34EC02F0BDC014F0ED0E61ECDD
:1029180002F00A0E3DEC01F0BCC014F0EE0E61ECC2
:1029280002F00A0E3DEC01F0BBC014F0EF0E61ECB2
:1029380002F00A0E3DEC01F0CCC014F0E40E61EC9C
:1029480002F00A0E3DEC01F0CBC014F0E50E61EC8C
:1029580002F00A0E3DEC01F0CAC014F0E60E61EC7C
:1029680002F00A0E3DEC01F083AEFED7640E3DEC9A
:1029780001F017D086EC05F0800E83EC05F0660EAA
:10298800116EECEC05F0170E146E156A8CEC05F060
:10299800FBEC05F0C00E83EC05F06D0E116EECEC4F
:1029A80005F0555203E0030E55629DD080B207D062
:1029B800385205E09A519B1105E1246603D035523F
:1029C800D8B491D0600E57EC02F0046E056A640E1C
:1029D8000402F3CF06F0F4CF07F00502F350072600
:1029E800610E57EC02F0046E056A062605500722B0
:1029F80006509A5D07509B595FE3030E556E246A93
:102A0800966B976B3EEC03F0B251A927B351AA23FA
:102A1800B451AB239A51BE279B51BF23000EC0234C
:102A28009A51CA279B51CB23000ECC23B26BB36BB0
:102A3800B46B9A6B9B6BA951AA11AB1107E0546652
:102A480005D03C0E966F976B3BEC02F0C0C014F0BB
:102A5800CA0E61EC02F00A0E3DEC01F0BFC014F0A2
:102A6800CB0E61EC02F00A0E3DEC01F0BEC014F092
:102A7800CC0E61EC02F00A0E3DEC01F0CCC014F073
:102A8800E40E61EC02F00A0E3DEC01F0CBC014F04C
:102A9800E50E61EC02F00A0E3DEC01F0CAC014F03C
:102AA800E60E61EC02F00A0E3DEC01F080A2FED7C2
:102AB800640E3DEC01F017D086EC05F0800E83EC37
:102AC80005F0660E116EECEC05F0170E146E156A23
:102AD8008CEC05F0FBEC05F0C00E83EC05F06D0EF8
:102AE800116EECEC05F0555203E0040E55629DD0D2
:102AF80080B007D0395205E09A519B1105E125664F
:102B080003D03552D8B491D0650E57EC02F0046E5C
:102B1800056A640E0402F3CF06F0F4CF07F005024D
:102B2800F3500726660E57EC02F0046E056A062677
:102B38000550072206509A5D07509B595FE3040E23
:102B4800556E256A966B976B3EEC03F0B251AC2735
:102B5800B351AD23B451AE239A51C1279B51C2231F
:102B6800000EC3239A51CA279B51CB23000ECC23B6
:102B7800B26BB36BB46B9A6B9B6BAC51AD11AE116E
:102B880007E0546605D03C0E966F976B42EC02F056
:102B9800C3C014F0CD0E61EC02F00A0E3DEC01F05A
:102BA800C2C014F0CE0E61EC02F00A0E3DEC01F04A
:102BB800C1C014F0CF0E61EC02F00A0E3DEC01F03A
:102BC800CCC014F0E40E61EC02F00A0E3DEC01F00A
:102BD800CBC014F0E50E61EC02F00A0E3DEC01F0FA
:102BE800CAC014F0E60E61EC02F00A0E3DEC01F0EA
:102BF80080A0FED7640E3DEC01F017D086EC05F0FE
:102C0800800E83EC05F0660E116EECEC05F0170EE5
:102C1800146E156A8CEC05F0FBEC05F0C00E83EC25
:102C280005F06D0E116EECEC05F0555203E0060E42
:102C380055629DD082BA07D03A5205E09A519B114D
:102C480005E1266603D03552D8B491D00B0E57EC67
:102C580002F0046E056A640E0402F3CF06F0F4CFA6
:102C680007F00502F35007260C0E57EC02F0046E2D
:102C7800056A06260550072206509A5D07509B599B
:102C88005FE3060E556E266A966B976B3EEC03F073
:102C9800B251AF27B351B023B451B1239A51C427CD
:102CA8009B51C523000EC6239A51CA279B51CB239B
:102CB800000ECC23B26BB36BB46B9A6B9B6BAF51AA
:102CC800B011B11107E0546605D03C0E966F976BB2
:102CD80049EC02F0C6C014F0BA0E61EC02F00A0E1C
:102CE8003DEC01F0C5C014F0BB0E61EC02F00A0E19
:102CF8003DEC01F0C4C014F0BC0E61EC02F00A0E09
:102D08003DEC01F0CCC014F0E40E61EC02F00A0EC8
:102D18003DEC01F0CBC014F0E50E61EC02F00A0EB8
:102D28003DEC01F0CAC014F0E60E61EC02F00A0EA8
:102D38003DEC01F082AAFED7640E3DEC01F017D0FD
:102D480086EC05F0800E83EC05F0660E116EECEC57
:102D580005F0170E146E156A8CEC05F0FBEC05F007
:102D6800C00E83EC05F06D0E116EECEC05F05552BB
:102D7800D8B449D183BC39D0554C37D0542C02D063
:102D8800546A086A9AC05CF09BC05DF05E6A9A6BF0
:102D98009B6B555037EC04F05C505D105E1004E0FE
:102DA8005C509A275D509B23010E3EEC03F0B2C0A5
:102DB800A3F0B3C0A4F0B4C0A5F0010E556EB26B79
:102DC800B36BB46B9A6B9B6BA351A411A51107E06D
:102DD800546605D03C0E966F976B2DEC02F083ACD1
:102DE800FED7640E3DEC01F006D083BC04D0542C11
:102DF80002D0546A086A83BE3AD05550020A37E0B6
:102E0800542C02D0546A086A9AC05CF09BC05DF0EA
:102E18005E6A9A6B9B6B555037EC04F05C505D1002
:102E28005E1004E05C509A275D509B23020E3EEC36
:102E380003F0B2C0A6F0B3C0A7F0B4C0A8F0020E69
:102E4800556EB26BB36BB46B9A6B9B6BA651A711A3
:102E5800A81107E0546605D03C0E966F976B34ECCA
:102E680002F083AEFED7640E3DEC01F006D083BEBF
:102E780004D0542C02D0546A086A80B23AD0555013
:102E8800030A37E0542C02D0546A086A9AC05CF0EE
:102E98009BC05DF05E6A9A6B9B6B555037EC04F0F3
:102EA8005C505D105E1004E05C509A275D509B23D7
:102EB800030E3EEC03F0B2C0A9F0B3C0AAF0B4C050
:102EC800ABF0030E556EB26BB36BB46B9A6B9B6B26
:102ED800A951AA11AB1107E0546605D03C0E966FB4
:102EE800976B3BEC02F080A2FED7640E3DEC01F03C
:102EF80006D080B204D0542C02D0546A086A80B03C
:102F08003AD05550040A37E0542C02D0546A086A63
:102F18009AC05CF09BC05DF05E6A9A6B9B6B5550E3
:102F280037EC04F05C505D105E1004E05C509A27AA
:102F38005D509B23040E3EEC03F0B2C0ACF0B3C06E
:102F4800ADF0B4C0AEF0040E556EB26BB36BB46B9B
:102F58009A6B9B6BAC51AD11AE1107E0546605D06E
:102F68003C0E966F976B42EC02F080A0FED7640E81
:102F78003DEC01F006D080B004D0542C02D0546A45
:102F8800086A82BA3AD05550060A37E0542C02D063
:102F9800546A086A9AC05CF09BC05DF05E6A9A6BDE
:102FA8009B6B555037EC04F05C505D105E1004E0EC
:102FB8005C509A275D509B23060E3EEC03F0B2C08E
:102FC800AFF0B3C0B0F0B4C0B1F0060E556EB26B3E
:102FD800B36BB46B9A6B9B6BAF51B011B11107E037
:102FE800546605D03C0E966F976B49EC02F082AAA6
:102FF800FED7640E3DEC01F006D082BA04D0542C02
:1030080002D0546A086A110E505C0E0E51581EE325
:10301800DC2B000EDD23DE23506A516ADEC014F07B
:10302800DC0E61EC02F00A0E3DEC01F0DDC014F09C
:10303800DD0E61EC02F00A0E3DEC01F0DCC014F08C
:10304800DE0E61EC02F00A0E3DEC01F083BA42EFAD
:1030580010F086EC05F083AAFED7640E3DEC01F073
:10306800036A966B976B9751D8A442EF10F0780ECD
:10307800966142EF10F0800E83EC05F0D89003348F
:10308800090FD0DA146E0B00F550156E8CEC05F0B4
:10309800C00E83EC05F0B50E146E156A8CEC05F0C5
:1030A80083B60AD0330E0364032A83A6FED7C80E5C
:1030B8003DEC01F0966B976B83B809D00366030665
:1030C80083A8FED7C80E3DEC01F0966B976B83B4CE
:1030D80009D083A4FED7C80E3DEC01F086EC05F0BC
:1030E80042EF10F083BABFD783AAFED7C80E3DECD3
:1030F80001F003502BEC07F0966B976BB4D7000CDC
:1031080016501C0FF66E310E1720F76EF86A08007D
:10311800F55012002020204541535920574153486B
:1031280020202020004372656469743A20005469A5
:103138006D653A200054696D65313A200054696D17
:1031480065323A200054696D65333A200054696D40
:1031580065343A200054696D65353A20004C5600B4
:103168004F7574206F6620736572766963652020D9
:103178000054657374207374617274656420202030
:103188002000546573742066696E697368656420ED
:10319800202000436C656172656400436173683A7E
:1031A80020005365724E756D3A2000496E73657242
:1031B8007420636F696E3A0053657474696E67733F
:1031C80020736176656420200020202020202020A4
:1031D80020202020202020202000456E61626C6580
:1031E8006420202020202020202000446973616270
:1031F8006C6564202020202020202000456E61621C
:103208006C65642F44697361626C653F004469733F
:1032180061626C65642F456E61626C653F00455262
:10322800524F522020202020202020202020004EF5
:103238004F204552524F525320202020202020005A
:10324800436F6E74696E75653F2020202020202012
:10325800004368616E6E656C20313A2000436861F6
:103268006E6E656C20323A20004368616E6E656C44
:1032780020333A20004368616E6E656C20343A2032
:10328800004368616E6E656C20353A2000205469F1
:103298006D65206F766572203130306820002D2DE5
:1032A8002D4D454E552053544152542D2D2D005629
:1032B8005420636F646520202020202020202000D7
:1032C800427574746F6E20312041637469763F20B3
:1032D80000427574746F6E20322041637469763FC2
:1032E8002000427574746F6E2033204163746976D0
:1032F8003F2000427574746F6E20342041637469F6
:10330800763F2000427574746F6E203520416374D7
:1033180069763F2000546573742052656C6179208A
:10332800312020202000546573742052656C617927
:1033380020322020202000546573742052656C616F
:103348007920332020202000546573742052656C46
:103358006179203420202020005465737420526540
:103368006C61792035202020200053616C65207025
:10337800726570617261742020200053616C652051
:10338800766F646F73747275696B610053616C65F5
:10339800207061726F73747275696B610053616C30
:1033A8006520636865746B612020202020005361CC
:1033B8006C652070716E6120202020202020005331
:1033C800616C6520616C6C3A202020202020200050
:1033D8004F7665727061793A2020202020202020C5
:1033E80000546F74616C20636F756E746572202071
:1033F8002000436C65617220535441542043483186
:103408003F2000436C656172205354415420434867
:10341800323F2000436C656172205354415420436D
:1034280048333F2000436C65617220535441542057
:103438004348343F2000436C656172205354415423
:10344800204348353F2000436C65617220416C6C15
:1034580020535441543F2000415544495420202DC5
:103468003E204D4D432F5344004D4D432F53442090
:103478002D3E20454550524F4D00454550524F4D29
:10348800202D3E20434F4E46494700536574206324
:103498006F696E207461626C6520200052656164FA
:1034A800207072657061726174202020005265611D
:1034B8006420766F646F73747275696B610052650E
:1034C8006164207061726F73747275696B61005208
:1034D80065616420636865746B612020202020008A
:1034E800526561642070716E6120202020202020A8
:1034F80000536574207072657061726174202020B9
:10350800200053657420766F646F737472756B69ED
:10351800612000536574207061726F737472756BEB
:103528006961200053657420636865746B612020AD
:1035380020202020005365742070716E61202020A7
:10354800202020202000496E686962697420736514
:103558007474696E67730053746172742073657450
:1035680074696E6773202000424C20736574746917
:103578006E67732020202020004155544F5354413A
:1035880052542076616C756520004572726F722006
:103598006C6F672020202020202000436C6561721A
:1035A800204572726F72206C6F672000436C6561F2
:1035B80072206372656469742031202000436C6551
:1035C8006172206372656469742032202000436C44
:1035D800656172206372656469742033202000433A
:1035E8006C65617220637265646974203420200000
:1035F800436C6561722063726564697420352020AC
:1036080000436C656172206F766572706179202065
:1036180020002D2D2D2D4D454E5520454E442D2D48
:103628002D2D0000166E400FF66E360EF76AF72243
:10363800F86A0800F550120031363033313430362C
:10364800008A019B01AC01BD01CE01DF01F001013F
:1036580002120223023402450256026702780289E6
:10366800029A02AB02BC02CD02DE02EF0200031195
:10367800032203330344035503660377038803993E
:1036880003AA03BB03CC03DD03EE03FF03100421ED
:10369800043204430454046504760487049804A996
:1036A80004BA04CB04DC04ED04FE0441A0E1E045C7
:1036B800AAA158A5A34BA74D484FA8B0504354A959
:1036C80042B1ADABA461B2E5E365E4B478B8B6BA8B
:1036D800BBBCBD6FBEC67063BF79B3C7C2C0B700FD
:1036E800136EFC0FF66E360EF76AF722F86A0800BA
:1036F800F5501200202020205072657061726174AC
:103708002020202000202020566F646F737472756B
:103718003E6B612020002020205061726F7374720C
:10372800753E6B6120200020202020205965746B95
:103738006120202020202000202020202050776E8B
:10374800612020202020202000205055534E455431
:1037580045204A45544F4E2020004B524544495479
:10376800004E415052415645544520495A424F5205
:1037780020004C560020202020205041555A41203E
:063788002020202020009B
:00000001FF
